:0C0000000C9469000C9400000C940000AB
:10000C000C9400000C9400000C9400000C94000064
:10001C000C9400000C9400000C9400000C94000054
:10002C000C9400000C9400000C9400000C94000044
:10003C000C9400000C9400000C9400000C94000034
:10004C000C9400000C9400000C9499000C9400008B
:10005C000C9400000C9400000C9400000C94000014
:10006C000C9400000C9400000C9400000C94000004
:10007C000C9400000C9400000C9400000C940000F4
:10008C00FF00204156522056616C75652E2E2E00B5
:10009C006C656E677468203D253264636D0080C0AA
:1000AC002D4E414E000001002D4E414E00494E4652
:1000BC000000010005008C0002000005AA000100F0
:1000CC000405B2000000F894EE27ECBBF1E0F5BF9C
:1000DC00E5BFE0936C008DE0A2E0BB27ED938A9521
:1000EC00E9F780E090E1A0E0B1E0ED930197E9F74A
:1000FC00EEEBF0E085919591009761F0A591B591AB
:10010C0005901590BF01F00105900D920197E1F754
:10011C00FB01F0CF8BBFEFEFEDBFE0E1EEBFC0E036
:10012C00D5E00C94A200EA93EFB7F89454B055B014
:10013C007894EFBFE9911895EF976197EFEFEABBD1
:10014C00E7BBE0E0E0936100EBB9E8E1EAB9E6E097
:10015C00E0939500E0E0E0939000E7E6E9B9E2E295
:10016C00E7B9E7EAE6B9369A339AA0E115D1E0E0AF
:10017C00EA93A0E0C3D0AEE8B0E0FFD07894EFEF04
:10018C00EBBBE8BBE9E15E1620F0E0E0EBBBE8BBC3
:10019C0010E5EAE15E1628F0E0E0EBBBE0E8E8BB36
:1001AC001BE4EBE15E1628F0E0E0EBBBE0ECE8BB17
:1001BC0016E4ECE15E1628F0E0E0EBBBE0EEE8BB09
:1001CC0011E4EDE15E1628F0E0E0EBBBE0EFE8BBFC
:1001DC001CE3E1E25E1628F0E0E0EBBBE8EFE8BBE5
:1001EC0017E3E2E25E1628F0E0E0EBBBECEFE8BBD5
:1001FC0012E3E7E25E1628F0E0E0EBBBEEEFE8BBC3
:10020C001DE2EAE25E1628F0E0E0EBBBEFEFE8BBA4
:10021C0018E2EFE25E1628F0E0E8EBBBEFEFE8BB8C
:10022C0013E2E5E35E1628F0E0ECEBBBEFEFE8BB86
:10023C001EE1EEE35E1628F0E0EEEBBBEFEFE8BB61
:10024C0019E1EBE45E1628F0E0EFEBBBEFEFE8BB57
:10025C0014E1E1E65E1628F0E8EFEBBBEFEFE8BB4C
:10026C001FE0E3E85E1628F0ECEFEBBBEFEFE8BB2A
:10027C001AE0E0EA5E1628F0EEEFEBBBEFEFE8BB1E
:10028C0015E0E0E0EA93A1E039D0FE01FA93EA939D
:10029C00ECE9F0E0FA93EA93E12FFF276627772742
:1002AC0007D684E04ED32896DE0158D0A8ECB0E0F7
:1002BC00BDD765CFFFCF1A931A2FE5B3EF70AE2FD2
:1002CC00E12FE07FEA2BE5BB8BE18A95F1F7AA9A47
:1002DC008BE18A95F1F7AA988BE18A95F1F785C0A5
:1002EC00AA93A881E8DFE881E295E883A881E3DF9F
:1002FC0088EC90E00197F1F7219608951A930A93F0
:10030C001A2F0A81E12FF0E0E050FB4FE081E00F63
:10031C00AE2FE6DF402E712E1981088123960895A9
:10032C00A2E044D4ACE0DCDFA1E040D4E0E07E2EDF
:10033C004E2E08951A931A2F1A3011F0461440F0CD
:10034C00E0E0EA937394A72DD9DF1A3009F44DC07D
:10035C004394A89AA12FC4DFA89847C02AD59D0121
:10036C00D9012F5F3F4FEC911E2FE03019F0A12FD8
:10037C00E1DFF6CF25D50C9448051BD59D01F9017D
:10038C002F5F3F4FE4911E2FE03019F0A12FD2DFE9
:10039C00F6CF16D50C9448051A931A2FE4B3E06FD8
:1003AC00E4BBA29AA09AA19AAA98A898A998612E9F
:1003BC00E12FE058E0930205E12FE054E0930305B0
:1003CC00A4E1B0E033D7F6D3F5D3F4D3A0E273DFD6
:1003DC0080E991E00197F1F7A8E282DFA4E080DFE9
:1003EC00A5E87EDFA6E07CDF9BDF19910895DFD4C2
:1003FC009D015E811296ED91FC9111973097E9F079
:10040C00D901DFD38F01309759F00230E0E01E079D
:10041C0060F0F80131978F01D9011496ED93FC939C
:10042C00D9011296D3D331975083D901ED91FC9118
:10043C001197FF230AF0CAD305C0D901EFEFFFEFE4
:10044C00ED93FC93BBD427960895C6D3E0E8C9D3AB
:10045C00AD012A85EE85FF85EF3FAFEFFA0731F44A
:10046C005A934A93ACEAB0E0A3D288C0EF3FAFE70F
:10047C00FA0731F45A934A93ADEAB0E099D27EC0B0
:10048C00AB85A73010F0E6E0EB871B85E12F115010
:10049C00E03011F0ABD3FACFB7D330976040704057
:1004AC0019F430E0A3D31BC03B85B3D309F008F497
:1004BC0007C09CD3AED318F0B6D3BAD3FBCF08C0C9
:1004CC00A8D328F4B0D3BFD3C4D33150F9CF8ED333
:1004DC009BD3C4D3BED39DD310F0A5D3A9D310E026
:1004EC00EB85E11728F1C0D3C4D3B8D3C8D39BD3C1
:1004FC0039D628D50E2F5F934F934F5F5F4FE05D3A
:10050C00AF91BF91EC93E02FFF276627772753D548
:10051C00ABD3DAD588D3D6D481D59BD3E12F1F5F4B
:10052C00E030F1F6DA014F5F5F4FEEE2EC93D8CF9B
:10053C005F934F934F5F5F4FE22FAF91BF91EC935F
:10054C00303024F43195DA01EDE202C0DA01EBE24D
:10055C00EC934F5F5F4F5F934F9399D344D4E05D1F
:10056C00AF91BF91EC935F934F9391D373D4E05DB4
:10057C00AF91BF91EC93DA01E0E0EC931FD460965D
:10058C000895BA93AA93EF97619711D410E0FE01E6
:10059C00E85AFF4F0E945207E887F987FE01EA5A92
:1005AC00FF4F0E945207EE83FF83AE81BF81E0E0D4
:1005BC00F0E0ED93FC93DE01A45ABF4F07D33197C3
:1005CC00E4912E2FE03009F4B4C1E12FE03031F486
:1005DC00253211F411E001C05FD3AAC1E130B9F4A6
:1005EC00253211F459D3A3C112E0E0E0ED8B00E009
:1005FC002D3211F401E09CC12B3219F4EBE2ED8B9E
:10060C0097C1203219F4E0E2ED8B92C102C0E230C6
:10061C0039F450E013E0203311F4006889C102C0B2
:10062C00E33091F4203310F02A3308F007C0AAE02D
:10063C005A9F502DE22FE0535E0F7AC140E02E32CC
:10064C0011F414E075C10FC0E43099F4203310F0AC
:10065C002A3308F008C00062AAE04A9F402DE22F1E
:10066C00E0534E0F65C12C3619F4026015E060C1E1
:10067C0003C0E53009F05CC1E22FE33639F413D343
:10068C0018D311D3A481AA931BD351C1E53411F013
:10069C00E53609F402C0E636D1F518D31CD3ED913A
:1006AC00FD916D917D911DD3FED203D3AD85AA230F
:1006BC0032F0AD89AB3241F0A03261F013C016D3E9
:1006CC000ED40FD3EDE2ED8B07FF04C0ED89EA9356
:1006DC00F7D208C0EE85FF853196EE87FF873197FC
:1006EC00AD89A08305FF46E0263639F4FFD2E0D36E
:1006FC004A93AB89BC89C8D107C0F8D2D9D34A93E5
:10070C002A93AC89BD89A1DEE1D2F5D218C0E337BA
:10071C0029F4C9D2CED2F4D2EED20AC0E037A1F479
:10072C00C2D2C7D2EDD2AE85BF855BD11E2F086079
:10073C000F77403011F0411708F001C0142F40E042
:10074C00E0E0EC8B30E066C0E43611F0E93611F4F1
:10075C00046002C0E53791F4EAE0EC8B01FF07C0BE
:10076C00E0E0FAEC6AE97BE3D2D21AE01FC0E0E1E8
:10077C00F7E260E070E0CBD215E018C0E83511F478
:10078C00086003C0E83709F0D2C0E0E1EC8B01FF50
:10079C0007C0E0E0F0E060E070E1B9D218E006C01C
:1007AC00E0E0F0E160E070E0B2D214E0403011F033
:1007BC000F7701C041E001FF06C075D27AD28BD20F
:1007CC00149664D311C002FF09C06DD272D283D2C9
:1007DC00F8D16F2F660F660B762F06C064D269D2E4
:1007EC007AD2EFD166277727EA87FB876C877D87DC
:1007FC0002FF0FC0AD85AA232AF478D2E6D271D2BB
:10080C00EDE2ED8BED89E03019F01F5F4F5F01C019
:10081C000B7F342F00FD13C0151710F4351708F09B
:10082C000EC007FF08C002FF04C00B7F2D891150BA
:10083C0001C020E301C020E22FD25150EDCF14179C
:10084C0080F4006102FF05C067D209F051501150CD
:10085C004150E0E3EA9334D2503009F0515041500A
:10086C00EECF312FEC89E030B1F4303099F003FF4A
:10087C0006C0EE85FF852591EE87FF8705C0AE8506
:10088C00BF852D91AE87BF8707D2503009F05150EC
:10089C003150EBCF43C050D2B9D22E2F2A3030F08A
:1008AC0003FF02C0295C01C0295A01C0205D04FD70
:1008BC001DC0213348F449D2A130E0E0BE07E0E08E
:1008CC008E07E0E09E0709F40BC0431740F4531762
:1008DC0010F000FF01C00EC020E207FF07C020E3AC
:1008EC00006102FF03C018D209F05150D5D150302D
:1008FC0009F05150315020D2B9D2F3D1EC8925D224
:10090C00FF276627772782D202D2E889F9896A897C
:10091C007B8930976040704009F0BDCF00FF07C065
:10092C00503029F05150E0E2EA93CAD1F9CF10E0EF
:10093C0042CEAE81BF81ED91FD9140D2EF966F9684
:10094C000895FF92F82E269732D2FE010024EF0D67
:10095C00F01D46855785042E052A19F4EFEFFFEF9D
:10096C0023C0DE0118960024AF0DB01D8D01488701
:10097C005987E0E0EA87EB87DE011C960024AF0D77
:10098C00B01DED91FD91FA93EA931A930A93EDEF52
:10099C00F1E0FA93EA93DE011C96F3DD9F01A88542
:1009AC00B985E0E0EC93F90109D22C96FF900895FB
:1009BC00BA93AA93E991F991A991B991CD010590B6
:1009CC000D920020E1F7FC010895BA93AA93A99126
:1009DC00B991EE27FF276D91662311F03196FBCF6D
:1009EC000895BA93AA93AA27BB27E991F991059088
:1009FC00002011F01196FBCFFD0108955ED27B8192
:100A0C006A81F981E88177FB770F67FD7160972F19
:100A1C009E5781F078F0983190F4AA27BB2788274D
:100A2C0008948795B795A7959A95D1F7EA23FB2358
:100A3C00682305C0E8947727EE27FF2766276F7792
:100A4C00769508F4606877F9A991B9918991999193
:100A5C00EA17FB076807790797FB08952ED2A88140
:100A6C00B9818A819B81CADFE883F9836A837B839E
:100A7C0011F470D107C0EEF76DD1A0E0B0E080E8C2
:100A8C009FE3CCD224960895A7D0E0E0AAD09D0194
:100A9C005A85ED85FE85EF3FAFEFFA0731F43A93B7
:100AAC002A93A4EBB0E084DF7EC0EF3FAFE7FA07F8
:100ABC0031F43A932A93A5EBB0E07ADF74C0AE859B
:100ACC00AA2342F44CD10BD24FD1D9012F5F3F4F07
:100ADC00EDE2EC93573008F056E0152FE12F115052
:100AEC00E03021F0C1D0C5D044D1F8CF47D19DD250
:100AFC003BD110E0E0E0F0E060E87FE33AD13ED19A
:100B0C0075D358F073D01F5F173230F03A932A9395
:100B1C00A9EBB0E04DDF47C0F2CF103031F4D90172
:100B2C002F5F3F4FE0E3EC931CC0E12F1150E030FE
:100B3C00C1F09AD09ED092D0A2D029D113D302D298
:100B4C000E2F3F932F9328D1AF91BF91EC93E02FB1
:100B5C00F0E08AD026D1B8D21AD1B4D15FD204D168
:100B6C00E4CF5030E9F0D9012F5F3F4FEEE2EC9328
:100B7C00E52F5150E030A1F00AD165D0F5D0EFD07F
:100B8C00E1D10E2F3F932F9307D1AF91BF91EC93EF
:100B9C00E02FF0E0FCD005D195D140D2E5D0E8CFE4
:100BAC00D901E0E0EC930AD12F96089599DBA3E0EC
:100BBC00B0E03CC3A0E37FDB80E991E00197F1F763
:100BCC0008951496ED91FC9111970895ED91FD9176
:100BDC003196FE93EE9308952497E0E0E883E98341
:100BEC000895EA83EFE3EB83E2D00895AE81BF81F1
:100BFC0088859985E0E0F0E060E271E465D2EE83EF
:100C0C00FF83688779870895EC85FD856E857F85E0
:100C1C000895EE81FF8168857985AC85BD858E85CB
:100C2C009F85E4D20895AC85BD858E859F850895FA
:100C3C00EDECFCEC6CEC7DE347D2EC87FD876E872A
:100C4C007F873F5F0895E0E0F0E060E271E43CD222
:100C5C000895EC87FD876E877F870895A0E0B0E04C
:100C6C0080E09FE3E2D10895AE81BF8188859985AC
:100C7C000895EDECFCEC6CEC7DE326D20895DF01DD
:100C8C00CB01ECDEEE83FF836887798708954F5F95
:100C9C005F4FA32FEAE008952A93AF81B885E985C9
:100CAC00FA8509950895FE01E65AFF4F0E945207F6
:100CBC0008953497DE01A65ABF4FED93FC93089527
:100CCC00AF81B885E985FA8509950895FE01769678
:100CDC00EE87FF870895DE01A65ABF4F0E94580782
:100CEC000895EA87FB876C877D870895EA85FB85E5
:100CFC006C857D850895AE85BF8567DE1E2F0895B2
:100D0C00EADF1496ED91FD91EE87FF870895E88B4D
:100D1C00F98B6A8B7B8B08950B7FED89EA93DE014F
:100D2C00A95ABF4F0E945807FE01E75AFF4F0E9475
:100D3C005207099550300895E889F9896A897B89A9
:100D4C00AA85BB858C859D850895A889B9898A89D2
:100D5C009B890895E881F9816A817B810895EB85EF
:100D6C00FC856D857E850895EB87FC876D877E8776
:100D7C000895EE83FF83688779870895EE81FF815C
:100D8C0068857985AB85BC858D859E850895AB85F9
:100D9C00BC858D859E8508952F5F3F4FE02FE05DCC
:100DAC0008956F2F660F660B762F05D108955A9311
:100DBC004A933A932A931A930A9308955D814C812E
:100DCC003B812A81198108810895F0956095709571
:100DDC00E195FF4F6F4F7F4F0895FE2FFF0FFF0BD5
:100DEC006F2F7F2F089546D003D00EF4E195089510
:100DFC00002498E0AA0F001C0E1A10F40E0E01C06D
:100E0C00A1609A95B9F7EA2FA02D08953F934F93BF
:100E1C005F9300241124A00130E2AA0FBB1F881F8E
:100E2C00991F001C111C441F551F0E1A1F0A460B3C
:100E3C00570B28F40E0E1F1E461F571F01C0A16032
:100E4C003A9559F7FD01BC01D001CA015F914F9150
:100E5C003F910895E894A7FF02C0A1956894E7FD1F
:100E6C00E195C6DFEA2F0EF4E1950895CFDFFD0181
:100E7C00BC010895E894E7FF02C0E1956894A7FFD0
:100E8C0004C0A19500F8039400FA0895ED91FD912A
:100E9C006D917C91139708950F920190F081E02D44
:100EAC000F9008950F920D90BC91A02D0F90089566
:100EBC007A936A93FA93EA9308959A938A93BA93DE
:100ECC00AA930895182E862F612D192E972F712D08
:100EDC001B2EBF2FF12D1A2EAE2FE12D089530971A
:100EEC006040704009F070580895552342F4503812
:100EFC0011F4E0FF04C03196691F791F6BF050E8C4
:100F0C00572711F45F93CFC05F3F31F0660F000C91
:100F1C0057956795752F08955F9300200AF0CEC002
:100F2C00C7C050E8192E1522880F991F9527550F09
:100F3C00879550E8072E0522660F771F7527550FEA
:100F4C0067950895689401C0E8945F93F2DF703858
:100F5C0018F07F3F08F4A7C056E1571BAAF451952F
:100F6C0058300EF4593030F0EFEFFFEF6FEF7FE7B2
:100F7C0077F91AC077275523B9F0EE0FFF1F661FBC
:100F8C00771F5A95D1F710C07727583028F0EF2FDC
:100F9C00F62F672F5850F9CF552331F0769567957A
:100FAC00F795E7955A95D1F700200AF40EDF5F917B
:100FBC000895689401C0E894309760407040B1F097
:100FCC00002426F0772312F40094FFDE172E7EE126
:100FDC00112032F07A95EE0FFF1F661F111CF9CF0E
:100FEC00EF2FF62F612D5F938ADF5F9108954F935A
:100FFC00AF01FD01DA01AB01BC01CA01402D012C8E
:10100C00142E4F910895EA0FFB1F681F0895E09569
:10101C00F0956095EF5FFF4F6F4F08955F9381DF01
:10102C00903871F150E8152604C05F937ADF903840
:10103C0039F1703821F1572F591B2BF112F4D7DFEE
:10104C00FACF583118F0AA27BB278827583028F038
:10105C00AB2FB82F88275850F9CF552329F08695F8
:10106C00B795A7955A95D9F7502D512572F0CBDF2E
:10107C0038F46795F795E795739513F41FC0B7DFB0
:10108C003EDF5F910895D8F7FBCFEA1BFB0B680B93
:10109C0051F010F40094BBDF662392F3EE0FFF1FA8
:1010AC00661F7A95CBF7EE27FF27BF015F91089556
:1010BC00EFEFFFEF6FE77FEF5F910895EFEFFFEF3B
:1010CC006FE77FE75F9108955F932BDF703859F3DB
:1010DC00903849F301240894791F23F424F3002059
:1010EC003AF3ECCF0F921F932F933F934F9311270B
:1010FC0022279927689FA0018F9F302D410D591FE2
:10110C006B9F300D411D591F8E9F27D0BF9F25D03F
:10111C006A9F23D0BE9F1DD0AF9F1BD0AE9F110DD9
:10112C00291F391F491F591FE32FF42F652F522FE9
:10113C004F913F912F911F910F9066232AF0550FDD
:10114C00EE1FFF1F661F02C073954BF2CEDE5F9140
:10115C000895100D211D391F02C0200D311D491F8E
:10116C00591F08955F93DDDE703821F411200AF4C5
:10117C009FCFA4CF903809F496CF01240894970BF5
:10118C001BF4D4F30020F3CF792F1F932F933F93AD
:10119C004F931124112722273327A90190E2AE1770
:1011AC00BF078607410730F0AE1BBF0B860B410B08
:1011BC00089401C08894551F221F331F111CAA1FAD
:1011CC00BB1F881F441F9A9551F7F901612D4F9150
:1011DC003F912F911F91662332F0550FEE1FFF1F89
:1011EC00661F7A954BF281DE5F91089599239AF0F0
:1011FC00772342F0971748F029F4AE17BF078607FC
:10120C0020F031F098948894089598940894089557
:10121C001894889408957723C2F7971798F3A9F731
:10122C00EA17FB07680788F399F3ECCF109639F0AF
:10123C00A89580EA9FE00197F1F71197C9F70895F7
:00000001FF
