:060000000C944C000C946E
:100006007C000C948D000C9400000C9400000C9461
:1000160000000C9400000C9400000C9400000C945A
:1000260000000C9400000C9400000C9400000C944A
:1000360000000C9400000C9400000C9400000C943A
:1000460000000C9400000C9400000C9400000C942A
:1000560000000C9400000C9400000C9400000C941A
:1000660000000C9400000C9400000C9400000C940A
:1000760000000C9400000C9400000C9400000C94FA
:1000860000000C940000000000FE040004008C0038
:100096000000F894EE27ECBBF1E0F5BFE5BFE09376
:1000A6006C008DE0A2E0BB27ED938A95E9F780E02E
:1000B60090E1A0E0B1E0ED930197E9F7E0E9F0E027
:1000C60085919591009761F0A591B5910590159050
:1000D600BF01F00105900D920197E1F7FB01F0CF0A
:1000E6008BBFEFEFEDBFE0E1EEBFC0E0D5E00C94D3
:1000F600AB0040D0EEEF7E2E4424552449D04CF47C
:100106007BBAE72DEE0FE16048D0F20131962F0160
:10011600F5CF10C02FD0EFE77E2E4424552438D0DB
:100126004CF478BAE72DE695E06837D0F2013196BF
:100136002F01F5CFE991EFBFF991E991B991A99115
:100146009991899179916991F990199009901895E9
:10015600EFEFEABBE7BBE8BBEBBBE0E0E0936A008E
:10016600E3E0E9BFE8BF7894EAEA1BD0E5E519D0F9
:10017600FBCFFFCF0A921A92FA926A937A938A93E6
:100186009A93AA93BA93EA93FA93EFB7EA930895E8
:10019600E8E0F0E04E165F0608957E2EA4E6B0E095
:1001A60005C0E8BBEBBBA8ECB0E000C0109639F088
:1001B600A89580EA9FE00197F1F71197C9F708958E
:00000001FF
