:020000000C945E
:1000020046000C9400000C9400000C9400000C9428
:1000120000000C9400000C9400000C9400000C945E
:1000220000000C9400000C9400000C9400000C944E
:1000320000000C9400000C9400000C9400000C943E
:1000420000000C9400000C9400000C9400000C942E
:1000520000000C9400000C9400000C9400000C941E
:1000620000000C9400000C9400000C9400000C940E
:1000720000000C9400000C9400000C9400000C94FE
:1000820000000C9400000C940000F894EE27ECBBE6
:10009200F1E0F5BFE5BFE0936C008DE0A2E0BB2785
:1000A200ED938A95E9F780E090E1A0E0B1E0ED936D
:1000B2000197E9F78BBFEFEFEDBFE0E1EEBFC0E0E4
:1000C200D5E00C94640000E010E0EFEFEABBEBBB7C
:1000D200E7BBE8BBECEFE1BBEFEFE2BB6AD0E5E5E3
:1000E200E8BBEBBB72D0EAEA70D0E5E5E8BBEBBB5C
:1000F20030B3E32FF0E0EE3FA0E0FA0781F42EEFF9
:1001020000E010E00830E0E01E0744F42BBB62D0B0
:10011200A4E6B0E06BD00F5F1F4FF4CF45C0ED3FB8
:10012200A0E0FA0769F45FE700E010E00830E0E0E1
:100132001E072CF458BB53D00F5F1F4FF7CF34C0AC
:10014200EC3FA0E0FA0741F52EEF5FE700E010E098
:100152000830E0E01E073CF42BBB58BB3BD03FD03D
:100162000F5F1F4FF5CF2FEB5DEF00E010E008307F
:10017200E0E01E0784F42BBB58BBE22FE695E06853
:100182002E2FE52FEE0FE1605E2FA4E6B0E02ED019
:100192000F5F1F4FECCF08C0EF3FA0E0FA0709F452
:1001A20008D0E5E5E8BBEBBBA4E6B0E01FD0A0CFEA
:1001B200FFCFE5E5E8BBEBBBA8ECB0E017D0EAEA7D
:1001C200E8BBEBBBA8ECB0E011C0E8BBEBBBA8EC12
:1001D200B0E00CC0E22FEE0FE1602E2F0895E52F64
:1001E200E695E0685E2FA4E6B0E000C0109639F014
:1001F200A89580EA9FE00197F1F71197C9F7089552
:00000001FF
