:0E0000000C9444010C9400000C9400000C942D
:10000E0000000C9400000C9400000C9400000C9462
:10001E0000000C9400000C9400000C9400000C9452
:10002E0000000C9400000C9400000C9400000C9442
:10003E0000000C9400000C9400000C9400000C9432
:10004E0000000C9400000C9400000C9400000C9422
:10005E0000000C9400000C9400000C9400000C9412
:10006E0000000C9400000C9400000C9400000C9402
:10007E0000000C9400000C9400000C94000010275B
:10008E00E80364000A0001000010000110000100E6
:10009E0048454C4C4F0000000000000000000000DE
:1000AE000000000000000000000000000000000042
:1000BE000000000000000000000000000000000032
:1000CE000000000000000000000000000000000022
:1000DE000000000000000000000000000000000012
:1000EE00594F4E474A4F4F000000000000000000DD
:1000FE0000000000000000000000000000000000F2
:10010E0000000000000000000000000000000000E1
:10011E0000000000000000000000000000000000D1
:10012E0000000000000000000000000000000000C1
:10013E0041494F5400000000000000000000000084
:10014E0000000000000000000000000000000000A1
:10015E000000000000000000000000000000000091
:10016E000000000000000000000000000000000081
:10017E000000000000000000000000000000000071
:10018E00454D424544444544000000000000000037
:10019E000000000000000000000000000000000051
:1001AE000000000000000000000000000000000041
:1001BE000000000000000000000000000000000031
:1001CE000000000000000000000000000000000021
:1001DE003535350000000000000000000000000072
:1001EE000000000000000000000000000000000001
:1001FE0000000000000000000000000000000000F1
:10020E0000000000000000000000000000000000E0
:10021E0000000000000000000000000000000000D0
:10022E00363636000000000000000000000000001E
:10023E0000000000000000000000000000000000B0
:10024E0000000000000000000000000000000000A0
:10025E000000000000000000000000000000000090
:10026E000000000000000000000000000000000080
:10027E0080C0020000057E020000F894EE27ECBB61
:10028E00F1E0F5BFE5BFE0936C008DE0A2E0BB2787
:10029E00ED938A95E9F780E090E1A0E0B1E0ED936F
:1002AE000197E9F7E0E8F2E085919591009761F00A
:1002BE00A591B59105901590BF01F00105900D9295
:1002CE000197E1F7FB01F0CF8BBFEFEFEDBFE0E160
:1002DE00EEBFC0E0D5E00C947401EF97EF97EF9767
:1002EE00A397D15080EE91E060E070E0EEE9F0E08F
:1002FE00E9D000E010E0A0E195D0EFEFEABBEBBB58
:10030E00E7BBE8BBECEFE1BBEFEFE2BB00E010E0D8
:10031E000530E0E01E07DCF459D0E0E0EA93A0E0FF
:10032E0043D0A0E5A09FF001A19FF00DA6D0E0E084
:10033E00EA93A1E039D0F8013196A0E5B0E0CED035
:10034E009CD0A8EEB3E0D2D00E5F1F4FE1CF99D074
:10035E0098D0EFEFE8BBEBBBA8ECB0E0C7D0D6CFA0
:10036E00FFCF1A931A2FE5B3EF70AE2FE12FE07F78
:10037E00EA2BE5BB8BE18A95F1F7AA9A8BE18A9578
:10038E00F1F7AA988BE18A95F1F775C0AA93A88127
:10039E00E8DFE881E295E883A881E3DF88EC90E06E
:1003AE000197F1F7219608951A930A931A2F0A814D
:1003BE00E12FF0E0E050FB4FE081E00FAE2FE6DFE3
:1003CE00502E412E1981088123960895A2E065D002
:1003DE00ACE0DCDFA1E061D0E0E04E2E5E2E0895B1
:1003EE001A931A2F1A3011F0571438F0E0E0EA93EE
:1003FE004394A42DD9DF1A30F1F15394A89AA12F6A
:10040E00C5DFA89838C054D09D01D9012F5F3F4F4A
:10041E00EC911E2FE03019F0A12FE2DFF6CF4DD078
:10042E00249608951A931A2FE4B3E06FE4BBA29AB0
:10043E00A09AA19AAA98A898A998712EE12FE0588F
:10044E00E0930205E12FE054E0930305A4E1B0E050
:10045E004DD027D026D025D0A0E283DF80E991E0D1
:10046E000197F1F7A8E292DFA4E090DFA5E88EDF16
:10047E00A6E08CDFABDF19910895DE01AE0FBF1F32
:10048E00C2CFE5E5E8BBEBBBA8ECB0E02FD0EAEAC3
:10049E00E8BBEBBBA8ECB0E029C078DFA3E0B0E08E
:1004AE0025C0A0E35EDF80E991E00197F1F70895A2
:1004BE003A932A931A930A9308953B812A811981BC
:1004CE0008810895AF93BF93DB01AC0FBD1F05905C
:1004DE000D920197E1F7BF91AF910895FA9FF02D1C
:1004EE00EB9FF00DEA9FE02DF10D0895109639F077
:1004FE00A89580EA9FE00197F1F71197C9F7089543
:00000001FF
