:060000000C945A000C9460
:100006008A000C9497000C9400000C9400000C9449
:1000160000000C9400000C9400000C9400000C945A
:1000260000000C9400000C9400000C9400000C944A
:1000360000000C9400000C9400000C9400000C943A
:1000460000000C9400000C9400000C9400000C942A
:1000560000000C9400000C9400000C9400000C941A
:1000660000000C9400000C9400000C9400000C940A
:1000760000000C9400000C9400000C9400000C94FA
:1000860000000C9400001027E80364000A00010039
:1000960000100001100001000000FFFF010204082B
:1000A600040004009E0004000005A2000000F8946D
:1000B600EE27ECBBF1E0F5BFE5BFE0936C008DE009
:1000C600A2E0BB27ED938A95E9F780E090E1A0E0F6
:1000D600B1E0ED930197E9F7E6EAF0E085919591B5
:1000E600009761F0A591B59105901590BF01F001BB
:1000F60005900D920197E1F7FB01F0CF8BBFEFEF73
:10010600EDBFE0E1EEBFC0E0D5E00C94CC0053D0EB
:1001160062D03CF423D064D0EBBBF20131962F01C0
:10012600F7CFEFEFEBBB0CC046D055D03CF421D057
:1001360057D0E8BBF20131962F01F7CFEFEFE8BBBE
:10014600E991EFBFF991E991B991A99199918991B5
:1001560079916991F990199009901895F301319662
:100166003F01E4E0F0E06E167F0614F06624772483
:100176000AC0F30131973F010024601470041CF497
:10018600E3E0F0E03F01A0E0B5E0A60DB71DEC917D
:100196000895EFEFEABBEBBBE7BBE8BBECEFE1BBD7
:1001A600EFEFE2B9E3B9E0E0E0936A00E3E0E9BF2C
:1001B600E8BF7894FFCF0A921A92FA926A937A93DA
:1001C6008A939A93AA93BA93EA93FA93EFB7EA9328
:1001D600442455240895E0E0F2E04E165F060895A3
:1001E600E3B9A2E0B0E002D0E0E00895109639F05D
:1001F600A89580EA9FE00197F1F71197C9F708954E
:00000001FF
