:040000000C949500C7
:100004000C9400000C9400000C9400000C9400006C
:100014000C9400000C9400000C9400000C9400005C
:100024000C9400000C9400000C9400000C9400004C
:100034000C9400000C9400000C9400000C9400003C
:100044000C9400000C9400000C9400000C9400002C
:100054000C9400000C9400000C9400000C9400001C
:100064000C9400000C9400000C9400000C9400000C
:100074000C9400000C9400000C9400000C940000FC
:100084000C9400000C9400001027E80364000A009C
:1000940001000010000110000100436F6E6E6563E3
:1000A400742073756365737321210A0D005365729F
:1000B40049616C20636F6E6E656374212100276152
:1000C40027206C6564207368696674206C656674A7
:1000D400200A0D20276227206C65642073686966F6
:1000E40074207269676874200A0D206E6F6E652033
:1000F400697320626C696E6B00256300596F7572B9
:1001040020636E743D25326420736563004E6F2056
:100114006B657920707265737321210080C00200C1
:10012400000520010000F894EE27ECBBF1E0F5BFD8
:10013400E5BFE0936C008DE0A2E0BB27ED938A95C8
:10014400E9F780E090E1A0E0B1E0ED930197E9F7F1
:10015400E2E2F1E085919591009761F0A591B59166
:1001640005901590BF01F00105900D920197E1F7FC
:10017400FB01F0CF8BBFEFEFEDBFE0E1EEBFC0E0DE
:10018400D5E00C94C500EF97619700E010E03EEFD6
:10019400EFEFEABBEBBBE7BBE8BBE0E0EBB9E8E1C0
:1001A400EAB9E6E0E0939500E0E0E0939000E7E64A
:1001B400E9B9EEE9F0E06AD4A0E1FAD0E0E0EA932C
:1001C400A0E0AAD0A1EBB0E0E4D0E2ECF0E05ED491
:1001D400EDEFF0E0FA93EA93EDB7FEB7E8D42F938E
:1001E40084E001D426962F91E22FF0E0E136A0E0DE
:1001F400FA0761F43EEF00E010E00830E0E01E078B
:1002040024F44AD40F5F1F4FF8CF61C0E236A0E058
:10021400FA0781F43FE700E010E00830E0E01E0751
:1002240044F43BBBE32FE695E0683ED40F5F1F4FD9
:10023400F4CF4DC0E336A0E0FA0711F539D40AE053
:1002440010E00130E0E01E07CCF032D4FE01FA9356
:10025400EA93E0E0F1E0FA93EA93F8016F2F660F76
:10026400660B762FA6D484E036D22896DE0184D09D
:10027400A8EEB3E0A3D401501040E3CF5FD027C071
:10028400E436A0E0FA07F9F43EEF00E010E00830AD
:10029400E0E01E0724F400D40F5F1F4FF8CFEFEF08
:1002A400EBBB3EEF00E010E00830E0E01E0744F452
:1002B40038BBE32FEE0FE160F7D30F5F1F4FF4CF8E
:1002C400EFEFE8BB04C0F4D3A1E1B1E062D080CF8A
:1002D400FFCF1A931A2FE5B3EF70AE2FE12FE07F13
:1002E400EA2BE5BB8BE18A95F1F7AA9A8BE18A9513
:1002F400F1F7AA988BE18A95F1F783C0AA93A881B4
:10030400E8DFE881E295E883A881E3DF88EC90E008
:100314000197F1F70C940E021A930A931A2F0A818B
:10032400E12FF0E0E050FB4FE081E00FAE2FE6DF7D
:10033400502E412E1981088123960895A2E0BCD342
:10034400ACE0DCDFA1E0B8D3E0E04E2E5E2E0895F1
:100354001A931A2F1A3011F0571440F0E0E0EA9380
:100364004394A42DD9DF1A3009F44BC05394A89AAE
:10037400A12FC4DFA89845C0FED39D01D9012F5FEA
:100384003F4FEC911E2FE03019F0A12FE1DFF6CFA3
:100394000CC0F1D39D01F9012F5F3F4FE4911E2F53
:1003A400E03019F0A12FD4DFF6CFECD324960895D2
:1003B4001A931A2FE4B3E06FE4BBA29AA09AA19A0D
:1003C400AA98A898A998712EE12FE058E093020505
:1003D400E12FE054E0930305A4E1B0E0EFD370D340
:1003E4006FD36ED3A0E275DF80E991E00197F1F756
:1003F400A8E284DFA4E082DFA5E880DFA6E07EDF58
:100404009DDF199108955F9BFECFECB10895AA93E7
:100414005D9BFECFE881ECB921960895ACD38D01A4
:100424003C81A32FF4DFD80152D3ACD32596089591
:10043400A0D39D015E811296ED91FC9111973097A6
:10044400E9F0D9014AD38F01309759F00230E0E046
:100454001E0760F0F80131978F01D9011496ED93CE
:10046400FC93D901129633D331975083D901ED917E
:10047400FC911197FF230AF02AD305C0D901EFEFAD
:10048400FFEFED93FC937CD327960895BA93AA9338
:1004940026976FD310E0AC85BD85E0E0F0E0ED93E6
:1004A400FC93EA89FB893196EA8BFB8B3197E491C3
:1004B4002E2FE03009F408C1E12FE03031F4253269
:1004C40011F411E001C00ED3FEC0E130A1F42532D5
:1004D40011F408D3F7C012E040E000E02D3211F42B
:1004E40001E0F1C02B3211F44BE2EDC0203211F4E3
:1004F40040E2E9C002C0E23039F450E013E02033B6
:1005040011F40068E0C003C0E33009F0DCC020331C
:1005140010F02A3308F007C0AAE05A9F502DE22FAA
:10052400E0535E0FD0C0E22FE33639F4E2D2E8891B
:10053400F989A481AA93E3D2C5C0E33729F4D9D2B7
:10054400E4D28BD21E2F07C0E03749F4D2D2DDD2D9
:1005540090D21E2F086002600F7730E037C0E43677
:1005640011F0E93611F4046002C0E53731F4ECE827
:10057400F0E0EE83FF8315E00CC0E83511F4086069
:1005840003C0E83709F09EC0E6E9F0E0EE83FF839C
:1005940014E002FF15C0ADD2A889B9891496ED9173
:1005A400FD91EA87FB87AB85AA2322F4F0D2EA8780
:1005B400FB874DE2403011F01F5F01C00B7F06C086
:1005C40098D2A889B98989D2EA87FB8700FD10C02F
:1005D400151770F407FF08C002FF04C00B7F242F17
:1005E400115001C020E301C020E27CD25150F0CF71
:1005F400312F01FF16C0303099F003FF06C0EE81A1
:10060400FF812591EE83FF8305C0AE81BF812D91CB
:10061400AE83BF8367D2503009F051503150EBCFD5
:1006240048C020E3EE81FF81BED2E887F987EE81DE
:10063400FF813296EE83FF83E885F985AA85BB8521
:10064400AE17BF0750F02F5FA885B985EA85FB85F3
:10065400EA1BFB0BEA87FB87EFCF2A3328F003FF63
:1006640002C0295F01C0295D04FD19C0213320F4B3
:10067400A885B985119709F409C0531710F000FF34
:1006840001C011C020E207FF0AC020E3006102FF9D
:1006940006C00B7F4A9333D2503009F0515022D216
:1006A400503009F051503150A885B985129708F09F
:1006B400B8CF00FF07C0503029F05150E0E2EA9370
:1006C4001ED2F9CF10E0EDCEAC85BD85ED91FD9144
:1006D40057D264960895FF92F82E26974AD2FE01C7
:1006E4000024EF0DF01D46855785042E052A19F4C4
:1006F400EFEFFFEF18C0DE01189611D24887598733
:10070400E0E0EA87EB87DE011C960ED2EAE1F2E034
:10071400FA93EA93DE011C96B9DE9F01A885B98598
:10072400E0E0EC93F9012CD22C96FF900895FF920F
:10073400F82E26971A930A93DE011496F0D1E0E07E
:10074400EC83ED83EE83EF83DE011896EDD1E0E1D7
:10075400F2E0F4D19BDE198108812896FF90089578
:1007640008D29D014E815F81E0E0EC93DA01EC91C7
:100774001E2FE03019F0E0E0EC9302C044DE1E2F9F
:10078400E12FFED128960895FF92BA93AA93249755
:10079400F0D1E0E0F0E0E887F9874E2FE889F989A5
:1007A4003196E88BF98B3197E4913E2FE03009F4D0
:1007B40014C1A32F38D1E030B9F0EDB7FEB7FA93E6
:1007C400EA934F93C0D14F913E2FE03021F0A32FF5
:1007D4002AD1E03009F406C0BCD11CF4EFEFFFEFDE
:1007E400FEC0EBCF432FF8C0353209F0DFC050E034
:1007F400E889F9893591E88BF98B303310F03A3375
:1008040008F007C0AAE05A9F502DE32FE0535E0F73
:10081400EFCF303009F4E1C0EDB7FEB7FA93EA93B5
:100824004F9391D14F912E2FAE2FFDD0E03031F068
:1008340090D11CF4EFEFFFEFD2C0EECF203009F4DB
:10084400C3C0422F503009F45FEFE32FE33681F445
:1008540085D1EDB7FEB7FA93EA934F9374D14F91D4
:10086400D801EC9376D11CF4EFEFFFEFB8C098C039
:10087400E33731F573D1E52F5150E030E9F0EDB7AE
:10088400FEB7FA93EA934F935ED14F913E2FE03037
:1008940021F0A32FC8D0E03031F05BD11CF4EFEF8E
:1008A400FFEF9DC009C01F930F930F5F1F4FE32FEE
:1008B400AF91BF91EC93DFCFD801E0E0EC9370C02F
:1008C4006894F1F8E894F2F8E32FE43611F0E9368D
:1008D40019F4E894F1F802C0E53711F42AE008C0ED
:1008E400E83711F420E104C0E53209F45FC075C0B3
:1008F400E0E0EE83EF836894F0F8E52F5150E030A8
:1009040009F441C0EDB7FEB7FA93EA934F931BD1B4
:100914004F913E2FE13230F41CD11CF4EFEFFFEF86
:100924005EC015C0F1FC08C06894F1F83D3211F4C2
:10093400F2F8E3CF3B3209F3203129F4A32F7ED020
:10094400E03029F008C0A32F65D0E03021F4F0FC9A
:1009540044C0432F18C0313610F0375505C0313428
:1009640010F0375301C03053E22FAE81BF81F0E065
:1009740012D1DF01E32FF0E0EA0FFB1FEE83FF83C8
:10098400E894F0F8BACFEAD0F2FE05C0EE81FF8118
:10099400FED0EE83FF83EE81FF81D801ED93FC93BB
:1009A400E885F9853196E887F98716C0EDB7FEB773
:1009B400FA93EA934F93C7D04F91E31769F0C9D0E4
:1009C4001CF4EFEFFFEF0BC0E885F985309719F4BD
:1009D400EFEFFFEF04C001C0E1CEE885F985D0D088
:1009E4006296FF900895FF92F82E23971A930A9324
:1009F400DE01119694D0E0E0EB83EC83DE011596E2
:100A040093D0E2EBF3E09AD0BFDE198108812596FA
:100A1400FF900895AA93E1E0F991F03310F0FA33CE
:100A240008F0EE270895AA93E1E0F991F03229F055
:100A3400F93010F0FE3008F0EE270895AA93E1E0B3
:100A4400F991F05340F0FA3038F0FF75F750FA306E
:100A540010F0F03108F0EE270895BA93AA93A99103
:100A6400B991EE27FF276D91662311F03196FBCFE4
:100A74000895BA93AA93AA27BB27E991F9910590FF
:100A8400002011F01196FBCFFD010895FA93EA932B
:100A940080E04DDE229608953BBBE32FEE0FE1602C
:100AA4003E2FA4E6B0E08AC03E2FA4E6B0E086C0A4
:100AB400E0E0EA93A1E030CC21DCA3E0B0E07EC02A
:100AC400A0E307DC80E991E00197F1F70895ED9147
:100AD400FD913196FE93EE9308951496ED91FC9159
:100AE400119708952A93AD85BE85EF85F8890995F8
:100AF4000895E889F9893497E88BF98B0895AD85D1
:100B0400BE85EF85F88909950895A889B989149651
:100B1400ED91FD91EE83FF83AE81BF8108950024A2
:100B2400AF0DB01D8D0108950024AF0DB01DED91E2
:100B3400FD91FA93EA931A930A930895FA93EA9328
:100B4400DE0118960895AC85BD85EE85FF8509956F
:100B54000895AA85BB85AC91A0300895EE85FF85E4
:100B64003497EE87FF87AE85BF8514960D911C914F
:100B740008955A934A933A932A931A930A93089599
:100B84005D814C813B812A81198108810895F19509
:100B9400E195F0400895FA9FF02DEB9FF00DEA9F48
:100BA400E02DF10D08950590F491E02D089560E095
:100BB40070E07A936A93FA93EA930895109639F061
:100BC400A89580EA9FE00197F1F71197C9F7089576
:00000001FF
