:0A0000000C9452000C9400000C94C4
:10000A0000000C9400000C9400000C9400000C9466
:10001A0000000C9400000C9400000C9400000C9456
:10002A0000000C9400000C9400000C9400000C9446
:10003A0000000C9400000C9400000C9400000C9436
:10004A0000000C9400000C9400000C9400000C9426
:10005A0000000C9400000C9400000C9400000C9416
:10006A0000000C9400000C9400000C9400000C9406
:10007A0000000C9400000C9400000C9400000C94F6
:10008A000000FFFEFCF8F1E3C78F1F3F7FFFFFFE72
:10009A00FCF8F1E3C78F1F3F7FFFF894EE27ECBB14
:1000AA00F1E0F5BFE5BFE0936C008DE0A2E0BB276D
:1000BA00ED938A95E9F780E090E1A0E0B1E0ED9355
:1000CA000197E9F78BBFEFEFEDBFE0E1EEBFC0E0CC
:1000DA00D5E00C947000689788E160E070E0ECE885
:1000EA00F0E048D000E010E020E030E040E050E0EE
:1000FA00EFEFEABBEBBBE7BBE8BB042E052AC1F472
:10010A002DD00B30E0E01E0714F40F5F1F4F0930AB
:10011A00E0E01E076CF02F5F3F4FEBE0F0E0E217E4
:10012A00F30731F441E050E00BE010E02BE030E05F
:10013A00E1E0F0E0E417F50761F410D0332312F0A0
:10014A0021503040E7E0F0E0E217F30711F40150E4
:10015A001040A8ECB0E01AD0D0CFFFCFDE011C9639
:10016A00A00FB11FEC91EBBBDE01A20FB31FEC9104
:10017A00E8BB0895AF93BF93DB01AC0FBD1F059099
:10018A000D928A95E1F7BF91AF910895109639F0D3
:10019A00A89580EA9FE00197F1F71197C9F70895AA
:00000001FF
