:0A0000000C944C000C9400000C94CA
:10000A0000000C9400000C9400000C9400000C9466
:10001A0000000C9400000C9400000C9400000C9456
:10002A0000000C9400000C9400000C9400000C9446
:10003A0000000C9400000C947C000C9400000C94BA
:10004A0000000C9400000C9400000C9400000C9426
:10005A0000000C9400000C9400000C9400000C9416
:10006A0000000C9400000C9400000C9400000C9406
:10007A0000000C9400000C9400000C9400000C94F6
:10008A00000000000000040004008C000000F89446
:10009A00EE27ECBBF1E0F5BFE5BFE0936C008DE025
:1000AA00A2E0BB27ED938A95E9F780E090E1A0E012
:1000BA00B1E0ED930197E9F7E0E9F0E085919591D8
:1000CA00009761F0A591B59105901590BF01F001D7
:1000DA0005900D920197E1F7FB01F0CF8BBFEFEF8F
:1000EA00EDBFE0E1EEBFC0E0D5E00C949400EA93E6
:1000FA00FA93EFB7EA93E4E6E2BFF20131962F01F1
:10010A00E2E3F0E0E415F50529F444245524F3016B
:10011A0031963F01E991EFBFF991E9911895EFEF17
:10012A00E7BBEABBE8BBEBBBE0E0E0BFE7E0E3BF6D
:10013A00E4E6E2BFE1E0E7BFE0E0E0BD7894D301A6
:10014A00E2E0F0E01FD0309711F4E5E501C0EAEAF9
:10015A00EBBBF5CFFFCFF195E195F0400895002470
:10016A00112490E1AA0FBB1F001C111C0E1A1F0AB2
:10017A0018F40E0E1F1E01C0A1609A9599F7FD0191
:10018A00D0010895E894B7FF04C0B195A195B04095
:10019A006894F7FDE0DFE3DFFD010EF4DCDF08958C
:00000001FF
