:040000000C945E00FE
:100004000C9400000C9400000C9400000C9400006C
:100014000C9400000C9400000C9400000C9400005C
:100024000C9400000C9400000C9400000C9400004C
:100034000C9400000C9400000C9400000C9400003C
:100044000C9400000C9400000C9400000C9400002C
:100054000C9400000C9400000C9400000C9400001C
:100064000C9400000C9400000C9400000C9400000C
:100074000C9400000C9400000C9400000C940000FC
:100084000C9400000C9400001027E80364000A009C
:10009400010000100001100001000000FFFF010238
:1000A400040880C0040004009E0004000005A200AF
:1000B40002000405A6000000F894EE27ECBBF1E072
:1000C400F5BFE5BFE0936C008DE0A2E0BB27ED93A4
:1000D4008A95E9F780E090E1A0E0B1E0ED93019723
:1000E400E9F7E8EAF0E085919591009761F0A59130
:1000F400B59105901590BF01F00105900D920197FF
:10010400E1F7FB01F0CF8BBFEFEFEDBFE0E1EEBF16
:10011400C0E0D5E00C94A900F30131963F01E4E07E
:10012400F0E06E167F0614F0662477240AC0F3010B
:1001340031973F010024601470041CF4E3E0F0E004
:100144003F01A0E0B5E0A60DB71DEC910895EFE0E6
:10015400E7BB4424552419D034F4DEDF1BD0F2016C
:1001640031962F01F8CFA8EEB3E018D044245524DB
:100174000CD034F4DCDF0ED0F20131962F01F8CF2D
:10018400A8EEB3E00BD0E5CFFFCFE0E0F8E04E16E9
:100194005F060895E8BBA2E0B0E000C0109639F015
:1001A400A89580EA9FE00197F1F71197C9F70895A0
:00000001FF
